{
  "_format": "hh-sol-artifact-1",
  "contractName": "WalletMultisig",
  "sourceName": "contracts/WalletMultisig.sol",
  "abi": [
    {
      "inputs": [
        {
          "internalType": "address[]",
          "name": "_owner",
          "type": "address[]"
        },
        {
          "internalType": "uint256",
          "name": "_quorum",
          "type": "uint256"
        }
      ],
      "stateMutability": "nonpayable",
      "type": "constructor"
    },
    {
      "inputs": [
        {
          "internalType": "uint256",
          "name": "transactionIndex",
          "type": "uint256"
        }
      ],
      "name": "TxAlreadyApproved",
      "type": "error"
    },
    {
      "inputs": [
        {
          "internalType": "uint256",
          "name": "transactionIndex",
          "type": "uint256"
        }
      ],
      "name": "TxAlreadySent",
      "type": "error"
    },
    {
      "inputs": [
        {
          "internalType": "uint256",
          "name": "transactionIndex",
          "type": "uint256"
        }
      ],
      "name": "txNotExist",
      "type": "error"
    },
    {
      "anonymous": false,
      "inputs": [
        {
          "indexed": true,
          "internalType": "address",
          "name": "owner",
          "type": "address"
        },
        {
          "indexed": true,
          "internalType": "uint256",
          "name": "transactionIndex",
          "type": "uint256"
        }
      ],
      "name": "ApproveWithdrawTx",
      "type": "event"
    },
    {
      "anonymous": false,
      "inputs": [
        {
          "indexed": true,
          "internalType": "address",
          "name": "owner",
          "type": "address"
        },
        {
          "indexed": true,
          "internalType": "uint256",
          "name": "transactionIndex",
          "type": "uint256"
        },
        {
          "indexed": true,
          "internalType": "address",
          "name": "to",
          "type": "address"
        },
        {
          "indexed": false,
          "internalType": "uint256",
          "name": "amount",
          "type": "uint256"
        }
      ],
      "name": "CreateWithdrawTx",
      "type": "event"
    },
    {
      "anonymous": false,
      "inputs": [
        {
          "indexed": true,
          "internalType": "address",
          "name": "sander",
          "type": "address"
        },
        {
          "indexed": false,
          "internalType": "uint256",
          "name": "ethAmount",
          "type": "uint256"
        },
        {
          "indexed": false,
          "internalType": "uint256",
          "name": "balance",
          "type": "uint256"
        }
      ],
      "name": "Deposit",
      "type": "event"
    },
    {
      "inputs": [
        {
          "internalType": "uint256",
          "name": "_transacionIndex",
          "type": "uint256"
        }
      ],
      "name": "approveWithdrawTx",
      "outputs": [],
      "stateMutability": "nonpayable",
      "type": "function"
    },
    {
      "inputs": [],
      "name": "balanceOf",
      "outputs": [
        {
          "internalType": "uint256",
          "name": "",
          "type": "uint256"
        }
      ],
      "stateMutability": "view",
      "type": "function"
    },
    {
      "inputs": [
        {
          "internalType": "address",
          "name": "_to",
          "type": "address"
        },
        {
          "internalType": "uint256",
          "name": "_amount",
          "type": "uint256"
        }
      ],
      "name": "createWithdrawTx",
      "outputs": [],
      "stateMutability": "nonpayable",
      "type": "function"
    },
    {
      "inputs": [],
      "name": "deposit",
      "outputs": [],
      "stateMutability": "payable",
      "type": "function"
    },
    {
      "inputs": [],
      "name": "getOwners",
      "outputs": [
        {
          "internalType": "address[]",
          "name": "",
          "type": "address[]"
        }
      ],
      "stateMutability": "view",
      "type": "function"
    },
    {
      "inputs": [
        {
          "internalType": "uint256",
          "name": "_transacionIndex",
          "type": "uint256"
        }
      ],
      "name": "getWithdrawTx",
      "outputs": [
        {
          "components": [
            {
              "internalType": "address",
              "name": "to",
              "type": "address"
            },
            {
              "internalType": "uint256",
              "name": "amount",
              "type": "uint256"
            },
            {
              "internalType": "uint256",
              "name": "approvals",
              "type": "uint256"
            },
            {
              "internalType": "bool",
              "name": "sent",
              "type": "bool"
            }
          ],
          "internalType": "struct WalletMultisig.WithdrawTx",
          "name": "",
          "type": "tuple"
        }
      ],
      "stateMutability": "view",
      "type": "function"
    },
    {
      "inputs": [],
      "name": "getWithdrawTxCount",
      "outputs": [
        {
          "internalType": "uint256",
          "name": "",
          "type": "uint256"
        }
      ],
      "stateMutability": "view",
      "type": "function"
    },
    {
      "inputs": [],
      "name": "getWithdrawTxes",
      "outputs": [
        {
          "components": [
            {
              "internalType": "address",
              "name": "to",
              "type": "address"
            },
            {
              "internalType": "uint256",
              "name": "amount",
              "type": "uint256"
            },
            {
              "internalType": "uint256",
              "name": "approvals",
              "type": "uint256"
            },
            {
              "internalType": "bool",
              "name": "sent",
              "type": "bool"
            }
          ],
          "internalType": "struct WalletMultisig.WithdrawTx[]",
          "name": "",
          "type": "tuple[]"
        }
      ],
      "stateMutability": "view",
      "type": "function"
    },
    {
      "inputs": [
        {
          "internalType": "uint256",
          "name": "",
          "type": "uint256"
        }
      ],
      "name": "owners",
      "outputs": [
        {
          "internalType": "address",
          "name": "",
          "type": "address"
        }
      ],
      "stateMutability": "view",
      "type": "function"
    },
    {
      "inputs": [],
      "name": "quorumRequired",
      "outputs": [
        {
          "internalType": "uint256",
          "name": "",
          "type": "uint256"
        }
      ],
      "stateMutability": "view",
      "type": "function"
    },
    {
      "stateMutability": "payable",
      "type": "receive"
    }
  ],
  "bytecode": "0x60806040523480156200001157600080fd5b5060405162001aa938038062001aa9833981810160405281019062000037919062000529565b60008251116200007e576040517f08c379a00000000000000000000000000000000000000000000000000000000081526004016200007590620005f0565b60405180910390fd5b6000811180156200008f5750815181105b620000d1576040517f08c379a0000000000000000000000000000000000000000000000000000000008152600401620000c890620006ae565b60405180910390fd5b60005b8251811015620002f7576000838281518110620000f657620000f5620006d0565b5b60200260200101519050600073ffffffffffffffffffffffffffffffffffffffff168483815181106200012e576200012d620006d0565b5b602002602001015173ffffffffffffffffffffffffffffffffffffffff16036200018f576040517f08c379a000000000000000000000000000000000000000000000000000000000815260040162000186906200074f565b60405180910390fd5b600160008273ffffffffffffffffffffffffffffffffffffffff1673ffffffffffffffffffffffffffffffffffffffff16815260200190815260200160002060009054906101000a900460ff16156200021f576040517f08c379a00000000000000000000000000000000000000000000000000000000081526004016200021690620007c1565b60405180910390fd5b60018060008373ffffffffffffffffffffffffffffffffffffffff1673ffffffffffffffffffffffffffffffffffffffff16815260200190815260200160002060006101000a81548160ff0219169083151502179055506000819080600181540180825580915050600190039060005260206000200160009091909190916101000a81548173ffffffffffffffffffffffffffffffffffffffff021916908373ffffffffffffffffffffffffffffffffffffffff16021790555082600281905550508080620002ee9062000812565b915050620000d4565b5050506200085f565b6000604051905090565b600080fd5b600080fd5b600080fd5b6000601f19601f8301169050919050565b7f4e487b7100000000000000000000000000000000000000000000000000000000600052604160045260246000fd5b620003648262000319565b810181811067ffffffffffffffff821117156200038657620003856200032a565b5b80604052505050565b60006200039b62000300565b9050620003a9828262000359565b919050565b600067ffffffffffffffff821115620003cc57620003cb6200032a565b5b602082029050602081019050919050565b600080fd5b600073ffffffffffffffffffffffffffffffffffffffff82169050919050565b60006200040f82620003e2565b9050919050565b620004218162000402565b81146200042d57600080fd5b50565b600081519050620004418162000416565b92915050565b60006200045e6200045884620003ae565b6200038f565b90508083825260208201905060208402830185811115620004845762000483620003dd565b5b835b81811015620004b157806200049c888262000430565b84526020840193505060208101905062000486565b5050509392505050565b600082601f830112620004d357620004d262000314565b5b8151620004e584826020860162000447565b91505092915050565b6000819050919050565b6200050381620004ee565b81146200050f57600080fd5b50565b6000815190506200052381620004f8565b92915050565b600080604083850312156200054357620005426200030a565b5b600083015167ffffffffffffffff8111156200056457620005636200030f565b5b6200057285828601620004bb565b9250506020620005858582860162000512565b9150509250929050565b600082825260208201905092915050565b7f64657665206573736572636920616c6d656e6f20756e206f776e657200000000600082015250565b6000620005d8601c836200058f565b9150620005e582620005a0565b602082019050919050565b600060208201905081810360008301526200060b81620005c9565b9050919050565b7f696c2071756f72756d206465766520657373657265206d616767696f7265206460008201527f692030206520696e666572696f72652061206e756d65726f206469206f776e6560208201527f7273000000000000000000000000000000000000000000000000000000000000604082015250565b6000620006966042836200058f565b9150620006a38262000612565b606082019050919050565b60006020820190508181036000830152620006c98162000687565b9050919050565b7f4e487b7100000000000000000000000000000000000000000000000000000000600052603260045260246000fd5b7f61646472657373206e6f6e2076616c69646f0000000000000000000000000000600082015250565b6000620007376012836200058f565b91506200074482620006ff565b602082019050919050565b600060208201905081810360008301526200076a8162000728565b9050919050565b7f6f776e6572206e6f7420756e6971756500000000000000000000000000000000600082015250565b6000620007a96010836200058f565b9150620007b68262000771565b602082019050919050565b60006020820190508181036000830152620007dc816200079a565b9050919050565b7f4e487b7100000000000000000000000000000000000000000000000000000000600052601160045260246000fd5b60006200081f82620004ee565b91507fffffffffffffffffffffffffffffffffffffffffffffffffffffffffffffffff8203620008545762000853620007e3565b5b600182019050919050565b61123a806200086f6000396000f3fe6080604052600436106100955760003560e01c80636747dad7116100595780636747dad7146101d6578063722713f714610201578063a0e67e2b1461022c578063a9d3106614610257578063d0e30db014610294576100ec565b8063025e7c27146100f1578063088868e81461012e5780631b671a40146101595780633ebae36f146101825780634b465d74146101ab576100ec565b366100ec573373ffffffffffffffffffffffffffffffffffffffff167f90890809c654f11d6e72a28fa60149770a0d11ec6c92319d6ceb2bb0a4ea1a1534476040516100e2929190610c25565b60405180910390a2005b600080fd5b3480156100fd57600080fd5b5061011860048036038101906101139190610c7f565b61029e565b6040516101259190610ced565b60405180910390f35b34801561013a57600080fd5b506101436102dd565b6040516101509190610d08565b60405180910390f35b34801561016557600080fd5b50610180600480360381019061017b9190610c7f565b6102e3565b005b34801561018e57600080fd5b506101a960048036038101906101a49190610d4f565b61074e565b005b3480156101b757600080fd5b506101c0610932565b6040516101cd9190610ecc565b60405180910390f35b3480156101e257600080fd5b506101eb610a16565b6040516101f89190610d08565b60405180910390f35b34801561020d57600080fd5b50610216610a23565b6040516102239190610d08565b60405180910390f35b34801561023857600080fd5b50610241610a2b565b60405161024e9190610f9d565b60405180910390f35b34801561026357600080fd5b5061027e60048036038101906102799190610c7f565b610ab9565b60405161028b9190611014565b60405180910390f35b61029c610b7a565b005b600081815481106102ae57600080fd5b906000526020600020016000915054906101000a900473ffffffffffffffffffffffffffffffffffffffff1681565b60025481565b600160003373ffffffffffffffffffffffffffffffffffffffff1673ffffffffffffffffffffffffffffffffffffffff16815260200190815260200160002060009054906101000a900460ff1661036f576040517f08c379a00000000000000000000000000000000000000000000000000000000081526004016103669061108c565b60405180910390fd5b8060048054905081106103b957806040517fae06c9730000000000000000000000000000000000000000000000000000000081526004016103b09190610d08565b60405180910390fd5b81600115156003600083815260200190815260200160002060003373ffffffffffffffffffffffffffffffffffffffff1673ffffffffffffffffffffffffffffffffffffffff16815260200190815260200160002060009054906101000a900460ff1615150361046057806040517f6b771e4a0000000000000000000000000000000000000000000000000000000081526004016104579190610d08565b60405180910390fd5b826001151560048281548110610479576104786110ac565b5b906000526020600020906004020160030160009054906101000a900460ff161515036104dc57806040517f1b344ee70000000000000000000000000000000000000000000000000000000081526004016104d39190610d08565b60405180910390fd5b600484815481106104f0576104ef6110ac565b5b906000526020600020906004020160020160008154809291906105129061110a565b919050555060016003600086815260200190815260200160002060003373ffffffffffffffffffffffffffffffffffffffff1673ffffffffffffffffffffffffffffffffffffffff16815260200190815260200160002060006101000a81548160ff02191690831515021790555060025460048581548110610597576105966110ac565b5b90600052602060002090600402016002015410610748576001600485815481106105c4576105c36110ac565b5b906000526020600020906004020160030160006101000a81548160ff021916908315150217905550600060048581548110610602576106016110ac565b5b906000526020600020906004020160000160009054906101000a900473ffffffffffffffffffffffffffffffffffffffff1673ffffffffffffffffffffffffffffffffffffffff166004868154811061065e5761065d6110ac565b5b90600052602060002090600402016001015460405161067c90611183565b60006040518083038185875af1925050503d80600081146106b9576040519150601f19603f3d011682016040523d82523d6000602084013e6106be565b606091505b5050905080610702576040517f08c379a00000000000000000000000000000000000000000000000000000000081526004016106f9906111e4565b60405180910390fd5b843373ffffffffffffffffffffffffffffffffffffffff167fe6266574c540a6eace832e59bc4fa1d3c8a6c570042f03f6eb69c252cb71395560405160405180910390a3505b50505050565b600160003373ffffffffffffffffffffffffffffffffffffffff1673ffffffffffffffffffffffffffffffffffffffff16815260200190815260200160002060009054906101000a900460ff166107da576040517f08c379a00000000000000000000000000000000000000000000000000000000081526004016107d19061108c565b60405180910390fd5b60006004805490509050600460405180608001604052808573ffffffffffffffffffffffffffffffffffffffff1681526020018481526020016000815260200160001515815250908060018154018082558091505060019003906000526020600020906004020160009091909190915060008201518160000160006101000a81548173ffffffffffffffffffffffffffffffffffffffff021916908373ffffffffffffffffffffffffffffffffffffffff160217905550602082015181600101556040820151816002015560608201518160030160006101000a81548160ff02191690831515021790555050508273ffffffffffffffffffffffffffffffffffffffff16813373ffffffffffffffffffffffffffffffffffffffff167f101a85d062d4f96045d6889441dd96dda5e818771df426a14e74d54b0ee9e1ce856040516109259190610d08565b60405180910390a4505050565b60606004805480602002602001604051908101604052809291908181526020016000905b82821015610a0d57838290600052602060002090600402016040518060800160405290816000820160009054906101000a900473ffffffffffffffffffffffffffffffffffffffff1673ffffffffffffffffffffffffffffffffffffffff1673ffffffffffffffffffffffffffffffffffffffff16815260200160018201548152602001600282015481526020016003820160009054906101000a900460ff16151515158152505081526020019060010190610956565b50505050905090565b6000600480549050905090565b600047905090565b60606000805480602002602001604051908101604052809291908181526020018280548015610aaf57602002820191906000526020600020905b8160009054906101000a900473ffffffffffffffffffffffffffffffffffffffff1673ffffffffffffffffffffffffffffffffffffffff1681526020019060010190808311610a65575b5050505050905090565b610ac1610bcc565b60048281548110610ad557610ad46110ac565b5b90600052602060002090600402016040518060800160405290816000820160009054906101000a900473ffffffffffffffffffffffffffffffffffffffff1673ffffffffffffffffffffffffffffffffffffffff1673ffffffffffffffffffffffffffffffffffffffff16815260200160018201548152602001600282015481526020016003820160009054906101000a900460ff1615151515815250509050919050565b3373ffffffffffffffffffffffffffffffffffffffff167f90890809c654f11d6e72a28fa60149770a0d11ec6c92319d6ceb2bb0a4ea1a153447604051610bc2929190610c25565b60405180910390a2565b6040518060800160405280600073ffffffffffffffffffffffffffffffffffffffff16815260200160008152602001600081526020016000151581525090565b6000819050919050565b610c1f81610c0c565b82525050565b6000604082019050610c3a6000830185610c16565b610c476020830184610c16565b9392505050565b600080fd5b610c5c81610c0c565b8114610c6757600080fd5b50565b600081359050610c7981610c53565b92915050565b600060208284031215610c9557610c94610c4e565b5b6000610ca384828501610c6a565b91505092915050565b600073ffffffffffffffffffffffffffffffffffffffff82169050919050565b6000610cd782610cac565b9050919050565b610ce781610ccc565b82525050565b6000602082019050610d026000830184610cde565b92915050565b6000602082019050610d1d6000830184610c16565b92915050565b610d2c81610ccc565b8114610d3757600080fd5b50565b600081359050610d4981610d23565b92915050565b60008060408385031215610d6657610d65610c4e565b5b6000610d7485828601610d3a565b9250506020610d8585828601610c6a565b9150509250929050565b600081519050919050565b600082825260208201905092915050565b6000819050602082019050919050565b610dc481610ccc565b82525050565b610dd381610c0c565b82525050565b60008115159050919050565b610dee81610dd9565b82525050565b608082016000820151610e0a6000850182610dbb565b506020820151610e1d6020850182610dca565b506040820151610e306040850182610dca565b506060820151610e436060850182610de5565b50505050565b6000610e558383610df4565b60808301905092915050565b6000602082019050919050565b6000610e7982610d8f565b610e838185610d9a565b9350610e8e83610dab565b8060005b83811015610ebf578151610ea68882610e49565b9750610eb183610e61565b925050600181019050610e92565b5085935050505092915050565b60006020820190508181036000830152610ee68184610e6e565b905092915050565b600081519050919050565b600082825260208201905092915050565b6000819050602082019050919050565b6000610f268383610dbb565b60208301905092915050565b6000602082019050919050565b6000610f4a82610eee565b610f548185610ef9565b9350610f5f83610f0a565b8060005b83811015610f90578151610f778882610f1a565b9750610f8283610f32565b925050600181019050610f63565b5085935050505092915050565b60006020820190508181036000830152610fb78184610f3f565b905092915050565b608082016000820151610fd56000850182610dbb565b506020820151610fe86020850182610dca565b506040820151610ffb6040850182610dca565b50606082015161100e6060850182610de5565b50505050565b60006080820190506110296000830184610fbf565b92915050565b600082825260208201905092915050565b7f6e6f74206f776e65720000000000000000000000000000000000000000000000600082015250565b600061107660098361102f565b915061108182611040565b602082019050919050565b600060208201905081810360008301526110a581611069565b9050919050565b7f4e487b7100000000000000000000000000000000000000000000000000000000600052603260045260246000fd5b7f4e487b7100000000000000000000000000000000000000000000000000000000600052601160045260246000fd5b600061111582610c0c565b91507fffffffffffffffffffffffffffffffffffffffffffffffffffffffffffffffff8203611147576111466110db565b5b600182019050919050565b600081905092915050565b50565b600061116d600083611152565b91506111788261115d565b600082019050919050565b600061118e82611160565b9150819050919050565b7f4661696c656420746f2073656e64204574686572000000000000000000000000600082015250565b60006111ce60148361102f565b91506111d982611198565b602082019050919050565b600060208201905081810360008301526111fd816111c1565b905091905056fea2646970667358221220e13ba093a7ed5c48c8029659d66de9c1df58e42e6c3bcaed9051da03213c34ef64736f6c63430008130033",
  "linkReferences": {},
  "deployedLinkReferences": {}
}